{
  "_format": "hh3-artifact-1",
  "contractName": "InvoiceValidation",
  "sourceName": "contracts/InvoiceValidation.sol",
  "abi": [
    {
      "inputs": [
        {
          "internalType": "address",
          "name": "registryAddr",
          "type": "address"
        }
      ],
      "stateMutability": "nonpayable",
      "type": "constructor"
    },
    {
      "anonymous": false,
      "inputs": [
        {
          "indexed": true,
          "internalType": "uint256",
          "name": "id",
          "type": "uint256"
        },
        {
          "indexed": true,
          "internalType": "address",
          "name": "seller",
          "type": "address"
        },
        {
          "indexed": false,
          "internalType": "bytes32",
          "name": "hash",
          "type": "bytes32"
        },
        {
          "indexed": false,
          "internalType": "uint256",
          "name": "amount",
          "type": "uint256"
        }
      ],
      "name": "InvoiceStored",
      "type": "event"
    },
    {
      "inputs": [
        {
          "internalType": "bytes32",
          "name": "h",
          "type": "bytes32"
        }
      ],
      "name": "getInvoiceIdByHash",
      "outputs": [
        {
          "internalType": "uint256",
          "name": "",
          "type": "uint256"
        }
      ],
      "stateMutability": "view",
      "type": "function"
    },
    {
      "inputs": [
        {
          "internalType": "bytes32",
          "name": "",
          "type": "bytes32"
        }
      ],
      "name": "hashToId",
      "outputs": [
        {
          "internalType": "uint256",
          "name": "",
          "type": "uint256"
        }
      ],
      "stateMutability": "view",
      "type": "function"
    },
    {
      "inputs": [],
      "name": "invoiceCounter",
      "outputs": [
        {
          "internalType": "uint256",
          "name": "",
          "type": "uint256"
        }
      ],
      "stateMutability": "view",
      "type": "function"
    },
    {
      "inputs": [
        {
          "internalType": "uint256",
          "name": "",
          "type": "uint256"
        }
      ],
      "name": "invoices",
      "outputs": [
        {
          "internalType": "uint256",
          "name": "id",
          "type": "uint256"
        },
        {
          "internalType": "address",
          "name": "seller",
          "type": "address"
        },
        {
          "internalType": "bytes32",
          "name": "invoiceHash",
          "type": "bytes32"
        },
        {
          "internalType": "uint256",
          "name": "amount",
          "type": "uint256"
        },
        {
          "internalType": "uint256",
          "name": "timestamp",
          "type": "uint256"
        }
      ],
      "stateMutability": "view",
      "type": "function"
    },
    {
      "inputs": [],
      "name": "registry",
      "outputs": [
        {
          "internalType": "contract IRegistry",
          "name": "",
          "type": "address"
        }
      ],
      "stateMutability": "view",
      "type": "function"
    },
    {
      "inputs": [
        {
          "internalType": "bytes32",
          "name": "invoiceHash",
          "type": "bytes32"
        },
        {
          "internalType": "uint256",
          "name": "amount",
          "type": "uint256"
        }
      ],
      "name": "submitInvoice",
      "outputs": [
        {
          "internalType": "uint256",
          "name": "",
          "type": "uint256"
        }
      ],
      "stateMutability": "nonpayable",
      "type": "function"
    }
  ],
  "bytecode": "0x608060405234801561000f575f5ffd5b506040516109f63803806109f6833981810160405281019061003191906100d4565b805f5f6101000a81548173ffffffffffffffffffffffffffffffffffffffff021916908373ffffffffffffffffffffffffffffffffffffffff160217905550506100ff565b5f5ffd5b5f73ffffffffffffffffffffffffffffffffffffffff82169050919050565b5f6100a38261007a565b9050919050565b6100b381610099565b81146100bd575f5ffd5b50565b5f815190506100ce816100aa565b92915050565b5f602082840312156100e9576100e8610076565b5b5f6100f6848285016100c0565b91505092915050565b6108ea8061010c5f395ff3fe608060405234801561000f575f5ffd5b5060043610610060575f3560e01c8063095f0773146100645780630fd399fc146100945780634e6d1405146100c45780637b103999146100f8578063a57b381c14610116578063d24f461e14610134575b5f5ffd5b61007e600480360381019061007991906104be565b610164565b60405161008b9190610501565b60405180910390f35b6100ae60048036038101906100a99190610544565b610179565b6040516100bb9190610501565b60405180910390f35b6100de60048036038101906100d99190610582565b6103f2565b6040516100ef9594939291906105fb565b60405180910390f35b610100610443565b60405161010d91906106a7565b60405180910390f35b61011e610467565b60405161012b9190610501565b60405180910390f35b61014e600480360381019061014991906104be565b61046d565b60405161015b9190610501565b60405180910390f35b6003602052805f5260405f205f915090505481565b5f5f5f9054906101000a900473ffffffffffffffffffffffffffffffffffffffff1673ffffffffffffffffffffffffffffffffffffffff1663ee95feaf336040518263ffffffff1660e01b81526004016101d391906106c0565b602060405180830381865afa1580156101ee573d5f5f3e3d5ffd5b505050506040513d601f19601f82011682018060405250810190610212919061070e565b610251576040517f08c379a000000000000000000000000000000000000000000000000000000000815260040161024890610793565b60405180910390fd5b5f60035f8581526020019081526020015f2054146102a4576040517f08c379a000000000000000000000000000000000000000000000000000000000815260040161029b906107fb565b60405180910390fd5b60015f8154809291906102b690610846565b91905055506040518060a0016040528060015481526020013373ffffffffffffffffffffffffffffffffffffffff1681526020018481526020018381526020014281525060025f60015481526020019081526020015f205f820151815f01556020820151816001015f6101000a81548173ffffffffffffffffffffffffffffffffffffffff021916908373ffffffffffffffffffffffffffffffffffffffff16021790555060408201518160020155606082015181600301556080820151816004015590505060015460035f8581526020019081526020015f20819055503373ffffffffffffffffffffffffffffffffffffffff166001547fc2d5c68cd2eee879a696ddee5890acf87715f657a7499ec4ef2c1a50b286d04d85856040516103df92919061088d565b60405180910390a3600154905092915050565b6002602052805f5260405f205f91509050805f015490806001015f9054906101000a900473ffffffffffffffffffffffffffffffffffffffff16908060020154908060030154908060040154905085565b5f5f9054906101000a900473ffffffffffffffffffffffffffffffffffffffff1681565b60015481565b5f60035f8381526020019081526020015f20549050919050565b5f5ffd5b5f819050919050565b61049d8161048b565b81146104a7575f5ffd5b50565b5f813590506104b881610494565b92915050565b5f602082840312156104d3576104d2610487565b5b5f6104e0848285016104aa565b91505092915050565b5f819050919050565b6104fb816104e9565b82525050565b5f6020820190506105145f8301846104f2565b92915050565b610523816104e9565b811461052d575f5ffd5b50565b5f8135905061053e8161051a565b92915050565b5f5f6040838503121561055a57610559610487565b5b5f610567858286016104aa565b925050602061057885828601610530565b9150509250929050565b5f6020828403121561059757610596610487565b5b5f6105a484828501610530565b91505092915050565b5f73ffffffffffffffffffffffffffffffffffffffff82169050919050565b5f6105d6826105ad565b9050919050565b6105e6816105cc565b82525050565b6105f58161048b565b82525050565b5f60a08201905061060e5f8301886104f2565b61061b60208301876105dd565b61062860408301866105ec565b61063560608301856104f2565b61064260808301846104f2565b9695505050505050565b5f819050919050565b5f61066f61066a610665846105ad565b61064c565b6105ad565b9050919050565b5f61068082610655565b9050919050565b5f61069182610676565b9050919050565b6106a181610687565b82525050565b5f6020820190506106ba5f830184610698565b92915050565b5f6020820190506106d35f8301846105dd565b92915050565b5f8115159050919050565b6106ed816106d9565b81146106f7575f5ffd5b50565b5f81519050610708816106e4565b92915050565b5f6020828403121561072357610722610487565b5b5f610730848285016106fa565b91505092915050565b5f82825260208201905092915050565b7f6e6f7420726567697374657265642073656c6c657200000000000000000000005f82015250565b5f61077d601583610739565b915061078882610749565b602082019050919050565b5f6020820190508181035f8301526107aa81610771565b9050919050565b7f616c72656164792073746f7265640000000000000000000000000000000000005f82015250565b5f6107e5600e83610739565b91506107f0826107b1565b602082019050919050565b5f6020820190508181035f830152610812816107d9565b9050919050565b7f4e487b71000000000000000000000000000000000000000000000000000000005f52601160045260245ffd5b5f610850826104e9565b91507fffffffffffffffffffffffffffffffffffffffffffffffffffffffffffffffff820361088257610881610819565b5b600182019050919050565b5f6040820190506108a05f8301856105ec565b6108ad60208301846104f2565b939250505056fea264697066735822122043c3082def2f991434a18bb84d437c091f19666f46c6afdc93aac3895e4e288164736f6c634300081c0033",
  "linkReferences": {},
  "deployedLinkReferences": {},
  "immutableReferences": {},
  "inputSourceName": "project/contracts/InvoiceValidation.sol",
  "buildInfoId": "solc-0_8_28-e9195c89decdb6998688b85e30b0c16feba00c2d"
}