{
  "_format": "hh3-artifact-1",
  "contractName": "PaymentRegistry",
  "sourceName": "contracts/PaymentRegistry.sol",
  "abi": [
    {
      "inputs": [
        {
          "internalType": "address",
          "name": "registryAddr",
          "type": "address"
        },
        {
          "internalType": "address",
          "name": "invoiceValidationAddr",
          "type": "address"
        }
      ],
      "stateMutability": "nonpayable",
      "type": "constructor"
    },
    {
      "anonymous": false,
      "inputs": [
        {
          "indexed": true,
          "internalType": "uint256",
          "name": "id",
          "type": "uint256"
        },
        {
          "indexed": true,
          "internalType": "address",
          "name": "bank",
          "type": "address"
        },
        {
          "indexed": false,
          "internalType": "uint256",
          "name": "invoiceId",
          "type": "uint256"
        },
        {
          "indexed": false,
          "internalType": "bytes32",
          "name": "paymentHash",
          "type": "bytes32"
        },
        {
          "indexed": false,
          "internalType": "uint256",
          "name": "amountPaid",
          "type": "uint256"
        }
      ],
      "name": "PaymentStored",
      "type": "event"
    },
    {
      "inputs": [],
      "name": "admin",
      "outputs": [
        {
          "internalType": "address",
          "name": "",
          "type": "address"
        }
      ],
      "stateMutability": "view",
      "type": "function"
    },
    {
      "inputs": [],
      "name": "invoiceValidation",
      "outputs": [
        {
          "internalType": "contract IInvoiceValidation",
          "name": "",
          "type": "address"
        }
      ],
      "stateMutability": "view",
      "type": "function"
    },
    {
      "inputs": [],
      "name": "paymentCounter",
      "outputs": [
        {
          "internalType": "uint256",
          "name": "",
          "type": "uint256"
        }
      ],
      "stateMutability": "view",
      "type": "function"
    },
    {
      "inputs": [
        {
          "internalType": "bytes32",
          "name": "",
          "type": "bytes32"
        }
      ],
      "name": "paymentHashToId",
      "outputs": [
        {
          "internalType": "uint256",
          "name": "",
          "type": "uint256"
        }
      ],
      "stateMutability": "view",
      "type": "function"
    },
    {
      "inputs": [
        {
          "internalType": "uint256",
          "name": "",
          "type": "uint256"
        }
      ],
      "name": "payments",
      "outputs": [
        {
          "internalType": "uint256",
          "name": "id",
          "type": "uint256"
        },
        {
          "internalType": "address",
          "name": "bank",
          "type": "address"
        },
        {
          "internalType": "uint256",
          "name": "invoiceId",
          "type": "uint256"
        },
        {
          "internalType": "bytes32",
          "name": "paymentHash",
          "type": "bytes32"
        },
        {
          "internalType": "uint256",
          "name": "amountPaid",
          "type": "uint256"
        },
        {
          "internalType": "uint256",
          "name": "timestamp",
          "type": "uint256"
        }
      ],
      "stateMutability": "view",
      "type": "function"
    },
    {
      "inputs": [],
      "name": "registry",
      "outputs": [
        {
          "internalType": "contract IRegistry",
          "name": "",
          "type": "address"
        }
      ],
      "stateMutability": "view",
      "type": "function"
    },
    {
      "inputs": [
        {
          "internalType": "address",
          "name": "vatControlAddr",
          "type": "address"
        }
      ],
      "name": "setVATControl",
      "outputs": [],
      "stateMutability": "nonpayable",
      "type": "function"
    },
    {
      "inputs": [
        {
          "internalType": "bytes32",
          "name": "paymentHash",
          "type": "bytes32"
        },
        {
          "internalType": "bytes32",
          "name": "invoiceHash",
          "type": "bytes32"
        },
        {
          "internalType": "uint256",
          "name": "amountPaid",
          "type": "uint256"
        }
      ],
      "name": "storePayment",
      "outputs": [
        {
          "internalType": "uint256",
          "name": "",
          "type": "uint256"
        }
      ],
      "stateMutability": "nonpayable",
      "type": "function"
    },
    {
      "inputs": [],
      "name": "vatControl",
      "outputs": [
        {
          "internalType": "contract IVATControl",
          "name": "",
          "type": "address"
        }
      ],
      "stateMutability": "view",
      "type": "function"
    }
  ],
  "bytecode": "0x608060405234801561000f575f5ffd5b5060405161101c38038061101c83398181016040528101906100319190610155565b815f5f6101000a81548173ffffffffffffffffffffffffffffffffffffffff021916908373ffffffffffffffffffffffffffffffffffffffff1602179055508060015f6101000a81548173ffffffffffffffffffffffffffffffffffffffff021916908373ffffffffffffffffffffffffffffffffffffffff1602179055503360045f6101000a81548173ffffffffffffffffffffffffffffffffffffffff021916908373ffffffffffffffffffffffffffffffffffffffff1602179055505050610193565b5f5ffd5b5f73ffffffffffffffffffffffffffffffffffffffff82169050919050565b5f610124826100fb565b9050919050565b6101348161011a565b811461013e575f5ffd5b50565b5f8151905061014f8161012b565b92915050565b5f5f6040838503121561016b5761016a6100f7565b5b5f61017885828601610141565b925050602061018985828601610141565b9150509250929050565b610e7c806101a05f395ff3fe608060405234801561000f575f5ffd5b5060043610610091575f3560e01c806387d817891161006457806387d817891461011f578063d43dc33614610154578063e377950e14610170578063e3d8914d146101a0578063f851a440146101be57610091565b80632cc3073e1461009557806338079554146100c557806376840b60146100e35780637b10399914610101575b5f5ffd5b6100af60048036038101906100aa9190610833565b6101dc565b6040516100bc9190610876565b60405180910390f35b6100cd6101f1565b6040516100da9190610909565b60405180910390f35b6100eb610216565b6040516100f89190610876565b60405180910390f35b61010961021c565b6040516101169190610942565b60405180910390f35b61013960048036038101906101349190610985565b610240565b60405161014b969594939291906109df565b60405180910390f35b61016e60048036038101906101699190610a68565b610297565b005b61018a60048036038101906101859190610a93565b610369565b6040516101979190610876565b60405180910390f35b6101a86107b2565b6040516101b59190610b03565b60405180910390f35b6101c66107d7565b6040516101d39190610b1c565b60405180910390f35b6006602052805f5260405f205f915090505481565b60015f9054906101000a900473ffffffffffffffffffffffffffffffffffffffff1681565b60035481565b5f5f9054906101000a900473ffffffffffffffffffffffffffffffffffffffff1681565b6005602052805f5260405f205f91509050805f015490806001015f9054906101000a900473ffffffffffffffffffffffffffffffffffffffff16908060020154908060030154908060040154908060050154905086565b60045f9054906101000a900473ffffffffffffffffffffffffffffffffffffffff1673ffffffffffffffffffffffffffffffffffffffff163373ffffffffffffffffffffffffffffffffffffffff1614610326576040517f08c379a000000000000000000000000000000000000000000000000000000000815260040161031d90610b8f565b60405180910390fd5b8060025f6101000a81548173ffffffffffffffffffffffffffffffffffffffff021916908373ffffffffffffffffffffffffffffffffffffffff16021790555050565b5f5f5f9054906101000a900473ffffffffffffffffffffffffffffffffffffffff1673ffffffffffffffffffffffffffffffffffffffff1663ec676a49336040518263ffffffff1660e01b81526004016103c39190610b1c565b602060405180830381865afa1580156103de573d5f5f3e3d5ffd5b505050506040513d601f19601f820116820180604052508101906104029190610be2565b610441576040517f08c379a000000000000000000000000000000000000000000000000000000000815260040161043890610c57565b60405180910390fd5b5f60065f8681526020019081526020015f205414610494576040517f08c379a000000000000000000000000000000000000000000000000000000000815260040161048b90610cbf565b60405180910390fd5b5f60015f9054906101000a900473ffffffffffffffffffffffffffffffffffffffff1673ffffffffffffffffffffffffffffffffffffffff1663d24f461e856040518263ffffffff1660e01b81526004016104ef9190610cdd565b602060405180830381865afa15801561050a573d5f5f3e3d5ffd5b505050506040513d601f19601f8201168201806040525081019061052e9190610d0a565b90505f8103610572576040517f08c379a000000000000000000000000000000000000000000000000000000000815260040161056990610d7f565b60405180910390fd5b60035f81548092919061058490610dca565b91905055506040518060c0016040528060035481526020013373ffffffffffffffffffffffffffffffffffffffff1681526020018281526020018681526020018481526020014281525060055f60035481526020019081526020015f205f820151815f01556020820151816001015f6101000a81548173ffffffffffffffffffffffffffffffffffffffff021916908373ffffffffffffffffffffffffffffffffffffffff16021790555060408201518160020155606082015181600301556080820151816004015560a0820151816005015590505060035460065f8781526020019081526020015f20819055503373ffffffffffffffffffffffffffffffffffffffff166003547fef834e7e061a8029a46763be983cc4e4f2a0bc2ad6a33706f3f99703ca1619ab8388876040516106bf93929190610e11565b60405180910390a35f73ffffffffffffffffffffffffffffffffffffffff1660025f9054906101000a900473ffffffffffffffffffffffffffffffffffffffff1673ffffffffffffffffffffffffffffffffffffffff16146107a55760025f9054906101000a900473ffffffffffffffffffffffffffffffffffffffff1673ffffffffffffffffffffffffffffffffffffffff1663fefa92916003546040518263ffffffff1660e01b81526004016107779190610876565b5f604051808303815f87803b15801561078e575f5ffd5b505af11580156107a0573d5f5f3e3d5ffd5b505050505b6003549150509392505050565b60025f9054906101000a900473ffffffffffffffffffffffffffffffffffffffff1681565b60045f9054906101000a900473ffffffffffffffffffffffffffffffffffffffff1681565b5f5ffd5b5f819050919050565b61081281610800565b811461081c575f5ffd5b50565b5f8135905061082d81610809565b92915050565b5f60208284031215610848576108476107fc565b5b5f6108558482850161081f565b91505092915050565b5f819050919050565b6108708161085e565b82525050565b5f6020820190506108895f830184610867565b92915050565b5f73ffffffffffffffffffffffffffffffffffffffff82169050919050565b5f819050919050565b5f6108d16108cc6108c78461088f565b6108ae565b61088f565b9050919050565b5f6108e2826108b7565b9050919050565b5f6108f3826108d8565b9050919050565b610903816108e9565b82525050565b5f60208201905061091c5f8301846108fa565b92915050565b5f61092c826108d8565b9050919050565b61093c81610922565b82525050565b5f6020820190506109555f830184610933565b92915050565b6109648161085e565b811461096e575f5ffd5b50565b5f8135905061097f8161095b565b92915050565b5f6020828403121561099a576109996107fc565b5b5f6109a784828501610971565b91505092915050565b5f6109ba8261088f565b9050919050565b6109ca816109b0565b82525050565b6109d981610800565b82525050565b5f60c0820190506109f25f830189610867565b6109ff60208301886109c1565b610a0c6040830187610867565b610a1960608301866109d0565b610a266080830185610867565b610a3360a0830184610867565b979650505050505050565b610a47816109b0565b8114610a51575f5ffd5b50565b5f81359050610a6281610a3e565b92915050565b5f60208284031215610a7d57610a7c6107fc565b5b5f610a8a84828501610a54565b91505092915050565b5f5f5f60608486031215610aaa57610aa96107fc565b5b5f610ab78682870161081f565b9350506020610ac88682870161081f565b9250506040610ad986828701610971565b9150509250925092565b5f610aed826108d8565b9050919050565b610afd81610ae3565b82525050565b5f602082019050610b165f830184610af4565b92915050565b5f602082019050610b2f5f8301846109c1565b92915050565b5f82825260208201905092915050565b7f6f6e6c792061646d696e000000000000000000000000000000000000000000005f82015250565b5f610b79600a83610b35565b9150610b8482610b45565b602082019050919050565b5f6020820190508181035f830152610ba681610b6d565b9050919050565b5f8115159050919050565b610bc181610bad565b8114610bcb575f5ffd5b50565b5f81519050610bdc81610bb8565b92915050565b5f60208284031215610bf757610bf66107fc565b5b5f610c0484828501610bce565b91505092915050565b7f6e6f7420726567697374657265642062616e6b000000000000000000000000005f82015250565b5f610c41601383610b35565b9150610c4c82610c0d565b602082019050919050565b5f6020820190508181035f830152610c6e81610c35565b9050919050565b7f7061796d656e74206578697374730000000000000000000000000000000000005f82015250565b5f610ca9600e83610b35565b9150610cb482610c75565b602082019050919050565b5f6020820190508181035f830152610cd681610c9d565b9050919050565b5f602082019050610cf05f8301846109d0565b92915050565b5f81519050610d048161095b565b92915050565b5f60208284031215610d1f57610d1e6107fc565b5b5f610d2c84828501610cf6565b91505092915050565b7f696e766f69636520756e6b6e6f776e00000000000000000000000000000000005f82015250565b5f610d69600f83610b35565b9150610d7482610d35565b602082019050919050565b5f6020820190508181035f830152610d9681610d5d565b9050919050565b7f4e487b71000000000000000000000000000000000000000000000000000000005f52601160045260245ffd5b5f610dd48261085e565b91507fffffffffffffffffffffffffffffffffffffffffffffffffffffffffffffffff8203610e0657610e05610d9d565b5b600182019050919050565b5f606082019050610e245f830186610867565b610e3160208301856109d0565b610e3e6040830184610867565b94935050505056fea26469706673582212203e9f328b540bc31eb8d7c614ec17e9f484ed7f0b3d9c12777ef98dda1b27f8de64736f6c634300081c0033",
  "linkReferences": {},
  "deployedLinkReferences": {},
  "immutableReferences": {},
  "inputSourceName": "project/contracts/PaymentRegistry.sol",
  "buildInfoId": "solc-0_8_28-b996de29894b42a37169745223608e7464bca81f"
}