{
  "_format": "hh3-artifact-1",
  "contractName": "VATControl",
  "sourceName": "contracts/VATControl.sol",
  "abi": [
    {
      "inputs": [
        {
          "internalType": "address",
          "name": "invoiceAddr",
          "type": "address"
        },
        {
          "internalType": "address",
          "name": "paymentAddr",
          "type": "address"
        }
      ],
      "stateMutability": "nonpayable",
      "type": "constructor"
    },
    {
      "anonymous": false,
      "inputs": [
        {
          "indexed": true,
          "internalType": "address",
          "name": "seller",
          "type": "address"
        },
        {
          "indexed": false,
          "internalType": "uint256",
          "name": "invoiceId",
          "type": "uint256"
        },
        {
          "indexed": false,
          "internalType": "uint256",
          "name": "taxableAmount",
          "type": "uint256"
        },
        {
          "indexed": false,
          "internalType": "uint256",
          "name": "vatAmount",
          "type": "uint256"
        }
      ],
      "name": "VATRecorded",
      "type": "event"
    },
    {
      "inputs": [],
      "name": "invoiceReg",
      "outputs": [
        {
          "internalType": "contract IInvoiceMinimal",
          "name": "",
          "type": "address"
        }
      ],
      "stateMutability": "view",
      "type": "function"
    },
    {
      "inputs": [],
      "name": "paymentReg",
      "outputs": [
        {
          "internalType": "contract IPaymentMinimal",
          "name": "",
          "type": "address"
        }
      ],
      "stateMutability": "view",
      "type": "function"
    },
    {
      "inputs": [
        {
          "internalType": "uint256",
          "name": "invoiceId",
          "type": "uint256"
        }
      ],
      "name": "recordInvoiceTax",
      "outputs": [],
      "stateMutability": "nonpayable",
      "type": "function"
    },
    {
      "inputs": [
        {
          "internalType": "uint256",
          "name": "paymentId",
          "type": "uint256"
        }
      ],
      "name": "recordPayment",
      "outputs": [],
      "stateMutability": "nonpayable",
      "type": "function"
    },
    {
      "inputs": [
        {
          "internalType": "address",
          "name": "",
          "type": "address"
        }
      ],
      "name": "sellerTaxBase",
      "outputs": [
        {
          "internalType": "uint256",
          "name": "",
          "type": "uint256"
        }
      ],
      "stateMutability": "view",
      "type": "function"
    },
    {
      "inputs": [
        {
          "internalType": "address",
          "name": "",
          "type": "address"
        }
      ],
      "name": "sellerVatPaid",
      "outputs": [
        {
          "internalType": "uint256",
          "name": "",
          "type": "uint256"
        }
      ],
      "stateMutability": "view",
      "type": "function"
    },
    {
      "inputs": [
        {
          "internalType": "uint256",
          "name": "r",
          "type": "uint256"
        }
      ],
      "name": "setVatRatePermille",
      "outputs": [],
      "stateMutability": "nonpayable",
      "type": "function"
    },
    {
      "inputs": [],
      "name": "vatRatePermille",
      "outputs": [
        {
          "internalType": "uint256",
          "name": "",
          "type": "uint256"
        }
      ],
      "stateMutability": "view",
      "type": "function"
    }
  ],
  "bytecode": "0x608060405260be600455348015610014575f5ffd5b50604051610b27380380610b278339818101604052810190610036919061011a565b815f5f6101000a81548173ffffffffffffffffffffffffffffffffffffffff021916908373ffffffffffffffffffffffffffffffffffffffff1602179055508060015f6101000a81548173ffffffffffffffffffffffffffffffffffffffff021916908373ffffffffffffffffffffffffffffffffffffffff1602179055505050610158565b5f5ffd5b5f73ffffffffffffffffffffffffffffffffffffffff82169050919050565b5f6100e9826100c0565b9050919050565b6100f9816100df565b8114610103575f5ffd5b50565b5f81519050610114816100f0565b92915050565b5f5f604083850312156101305761012f6100bc565b5b5f61013d85828601610106565b925050602061014e85828601610106565b9150509250929050565b6109c2806101655f395ff3fe608060405234801561000f575f5ffd5b5060043610610086575f3560e01c80635f51388e116100595780635f51388e14610112578063a85954a714610142578063e634eb431461015e578063fefa92911461017c57610086565b8063045a05a01461008a57806314fcf072146100ba57806317ee0876146100d857806333503fb4146100f4575b5f5ffd5b6100a4600480360381019061009f91906105a0565b610198565b6040516100b191906105e3565b60405180910390f35b6100c26101ad565b6040516100cf91906105e3565b60405180910390f35b6100f260048036038101906100ed9190610626565b6101b3565b005b6100fc61031d565b60405161010991906106ac565b60405180910390f35b61012c600480360381019061012791906105a0565b610342565b60405161013991906105e3565b60405180910390f35b61015c60048036038101906101579190610626565b610357565b005b610166610361565b60405161017391906106e5565b60405180910390f35b61019660048036038101906101919190610626565b610385565b005b6003602052805f5260405f205f915090505481565b60045481565b5f5f5f5f9054906101000a900473ffffffffffffffffffffffffffffffffffffffff1673ffffffffffffffffffffffffffffffffffffffff16634e6d1405846040518263ffffffff1660e01b815260040161020e91906105e3565b60a060405180830381865afa158015610229573d5f5f3e3d5ffd5b505050506040513d601f19601f8201168201806040525081019061024d9190610759565b509350509250505f6103e86004548361026691906107fd565b610270919061086b565b90508160025f8573ffffffffffffffffffffffffffffffffffffffff1673ffffffffffffffffffffffffffffffffffffffff1681526020019081526020015f205f8282546102be919061089b565b925050819055508273ffffffffffffffffffffffffffffffffffffffff167fba7f83186198adbf460d8e9d027f36ef1b670a38b89cd39ceb787e150027af9985848460405161030f939291906108ce565b60405180910390a250505050565b60015f9054906101000a900473ffffffffffffffffffffffffffffffffffffffff1681565b6002602052805f5260405f205f915090505481565b8060048190555050565b5f5f9054906101000a900473ffffffffffffffffffffffffffffffffffffffff1681565b5f5f60015f9054906101000a900473ffffffffffffffffffffffffffffffffffffffff1673ffffffffffffffffffffffffffffffffffffffff166387d81789846040518263ffffffff1660e01b81526004016103e191906105e3565b60c060405180830381865afa1580156103fc573d5f5f3e3d5ffd5b505050506040513d601f19601f820116820180604052508101906104209190610903565b50945050935050505f5f5f5f9054906101000a900473ffffffffffffffffffffffffffffffffffffffff1673ffffffffffffffffffffffffffffffffffffffff16634e6d1405856040518263ffffffff1660e01b815260040161048391906105e3565b60a060405180830381865afa15801561049e573d5f5f3e3d5ffd5b505050506040513d601f19601f820116820180604052508101906104c29190610759565b509350509250505f6103e8600454836104db91906107fd565b6104e5919061086b565b90508060035f8573ffffffffffffffffffffffffffffffffffffffff1673ffffffffffffffffffffffffffffffffffffffff1681526020019081526020015f205f828254610533919061089b565b92505081905550505050505050565b5f5ffd5b5f73ffffffffffffffffffffffffffffffffffffffff82169050919050565b5f61056f82610546565b9050919050565b61057f81610565565b8114610589575f5ffd5b50565b5f8135905061059a81610576565b92915050565b5f602082840312156105b5576105b4610542565b5b5f6105c28482850161058c565b91505092915050565b5f819050919050565b6105dd816105cb565b82525050565b5f6020820190506105f65f8301846105d4565b92915050565b610605816105cb565b811461060f575f5ffd5b50565b5f81359050610620816105fc565b92915050565b5f6020828403121561063b5761063a610542565b5b5f61064884828501610612565b91505092915050565b5f819050919050565b5f61067461066f61066a84610546565b610651565b610546565b9050919050565b5f6106858261065a565b9050919050565b5f6106968261067b565b9050919050565b6106a68161068c565b82525050565b5f6020820190506106bf5f83018461069d565b92915050565b5f6106cf8261067b565b9050919050565b6106df816106c5565b82525050565b5f6020820190506106f85f8301846106d6565b92915050565b5f8151905061070c816105fc565b92915050565b5f8151905061072081610576565b92915050565b5f819050919050565b61073881610726565b8114610742575f5ffd5b50565b5f815190506107538161072f565b92915050565b5f5f5f5f5f60a0868803121561077257610771610542565b5b5f61077f888289016106fe565b955050602061079088828901610712565b94505060406107a188828901610745565b93505060606107b2888289016106fe565b92505060806107c3888289016106fe565b9150509295509295909350565b7f4e487b71000000000000000000000000000000000000000000000000000000005f52601160045260245ffd5b5f610807826105cb565b9150610812836105cb565b9250828202610820816105cb565b91508282048414831517610837576108366107d0565b5b5092915050565b7f4e487b71000000000000000000000000000000000000000000000000000000005f52601260045260245ffd5b5f610875826105cb565b9150610880836105cb565b9250826108905761088f61083e565b5b828204905092915050565b5f6108a5826105cb565b91506108b0836105cb565b92508282019050808211156108c8576108c76107d0565b5b92915050565b5f6060820190506108e15f8301866105d4565b6108ee60208301856105d4565b6108fb60408301846105d4565b949350505050565b5f5f5f5f5f5f60c0878903121561091d5761091c610542565b5b5f61092a89828a016106fe565b965050602061093b89828a01610712565b955050604061094c89828a016106fe565b945050606061095d89828a01610745565b935050608061096e89828a016106fe565b92505060a061097f89828a016106fe565b915050929550929550929556fea264697066735822122098236079355e3c848c9f1dab46f403d1b9055de415e5084a3ffc5b497cfdb66564736f6c634300081c0033",
  "linkReferences": {},
  "deployedLinkReferences": {},
  "immutableReferences": {},
  "inputSourceName": "project/contracts/VATControl.sol",
  "buildInfoId": "solc-0_8_28-e9195c89decdb6998688b85e30b0c16feba00c2d"
}