{
  "_format": "hh3-artifact-1",
  "contractName": "InvoiceValidation",
  "sourceName": "contracts/InvoiceValidation.sol",
  "abi": [
    {
      "inputs": [
        {
          "internalType": "address",
          "name": "registryAddr",
          "type": "address"
        }
      ],
      "stateMutability": "nonpayable",
      "type": "constructor"
    },
    {
      "anonymous": false,
      "inputs": [
        {
          "indexed": true,
          "internalType": "uint256",
          "name": "id",
          "type": "uint256"
        },
        {
          "indexed": true,
          "internalType": "address",
          "name": "seller",
          "type": "address"
        },
        {
          "indexed": false,
          "internalType": "bytes32",
          "name": "hash",
          "type": "bytes32"
        },
        {
          "indexed": false,
          "internalType": "uint256",
          "name": "amount",
          "type": "uint256"
        },
        {
          "indexed": false,
          "internalType": "uint256",
          "name": "vatRatePermille",
          "type": "uint256"
        },
        {
          "indexed": false,
          "internalType": "uint256",
          "name": "vatAmount",
          "type": "uint256"
        }
      ],
      "name": "InvoiceStored",
      "type": "event"
    },
    {
      "inputs": [],
      "name": "admin",
      "outputs": [
        {
          "internalType": "address",
          "name": "",
          "type": "address"
        }
      ],
      "stateMutability": "view",
      "type": "function"
    },
    {
      "inputs": [
        {
          "internalType": "bytes32",
          "name": "h",
          "type": "bytes32"
        }
      ],
      "name": "getInvoiceIdByHash",
      "outputs": [
        {
          "internalType": "uint256",
          "name": "",
          "type": "uint256"
        }
      ],
      "stateMutability": "view",
      "type": "function"
    },
    {
      "inputs": [
        {
          "internalType": "bytes32",
          "name": "",
          "type": "bytes32"
        }
      ],
      "name": "hashToId",
      "outputs": [
        {
          "internalType": "uint256",
          "name": "",
          "type": "uint256"
        }
      ],
      "stateMutability": "view",
      "type": "function"
    },
    {
      "inputs": [],
      "name": "invoiceCounter",
      "outputs": [
        {
          "internalType": "uint256",
          "name": "",
          "type": "uint256"
        }
      ],
      "stateMutability": "view",
      "type": "function"
    },
    {
      "inputs": [
        {
          "internalType": "uint256",
          "name": "",
          "type": "uint256"
        }
      ],
      "name": "invoices",
      "outputs": [
        {
          "internalType": "uint256",
          "name": "id",
          "type": "uint256"
        },
        {
          "internalType": "address",
          "name": "seller",
          "type": "address"
        },
        {
          "internalType": "bytes32",
          "name": "invoiceHash",
          "type": "bytes32"
        },
        {
          "internalType": "uint256",
          "name": "amount",
          "type": "uint256"
        },
        {
          "internalType": "uint256",
          "name": "vatRatePermille",
          "type": "uint256"
        },
        {
          "internalType": "uint256",
          "name": "timestamp",
          "type": "uint256"
        }
      ],
      "stateMutability": "view",
      "type": "function"
    },
    {
      "inputs": [],
      "name": "registry",
      "outputs": [
        {
          "internalType": "contract IRegistry",
          "name": "",
          "type": "address"
        }
      ],
      "stateMutability": "view",
      "type": "function"
    },
    {
      "inputs": [
        {
          "internalType": "address",
          "name": "vatControlAddr",
          "type": "address"
        }
      ],
      "name": "setVATControl",
      "outputs": [],
      "stateMutability": "nonpayable",
      "type": "function"
    },
    {
      "inputs": [
        {
          "internalType": "bytes32",
          "name": "invoiceHash",
          "type": "bytes32"
        },
        {
          "internalType": "uint256",
          "name": "amount",
          "type": "uint256"
        },
        {
          "internalType": "uint256",
          "name": "vatRatePermille",
          "type": "uint256"
        }
      ],
      "name": "submitInvoice",
      "outputs": [
        {
          "internalType": "uint256",
          "name": "",
          "type": "uint256"
        }
      ],
      "stateMutability": "nonpayable",
      "type": "function"
    },
    {
      "inputs": [],
      "name": "vatControl",
      "outputs": [
        {
          "internalType": "contract IVATControl",
          "name": "",
          "type": "address"
        }
      ],
      "stateMutability": "view",
      "type": "function"
    }
  ],
  "bytecode": "0x608060405234801561000f575f5ffd5b50604051610ec2380380610ec283398181016040528101906100319190610114565b805f5f6101000a81548173ffffffffffffffffffffffffffffffffffffffff021916908373ffffffffffffffffffffffffffffffffffffffff1602179055503360035f6101000a81548173ffffffffffffffffffffffffffffffffffffffff021916908373ffffffffffffffffffffffffffffffffffffffff1602179055505061013f565b5f5ffd5b5f73ffffffffffffffffffffffffffffffffffffffff82169050919050565b5f6100e3826100ba565b9050919050565b6100f3816100d9565b81146100fd575f5ffd5b50565b5f8151905061010e816100ea565b92915050565b5f60208284031215610129576101286100b6565b5b5f61013684828501610100565b91505092915050565b610d768061014c5f395ff3fe608060405234801561000f575f5ffd5b5060043610610091575f3560e01c8063a57b381c11610064578063a57b381c14610148578063d24f461e14610166578063d43dc33614610196578063e3d8914d146101b2578063f851a440146101d057610091565b8063095f0773146100955780634e6d1405146100c55780637b103999146100fa578063a11daec014610118575b5f5ffd5b6100af60048036038101906100aa919061077a565b6101ee565b6040516100bc91906107bd565b60405180910390f35b6100df60048036038101906100da9190610800565b610203565b6040516100f196959493929190610879565b60405180910390f35b61010261025a565b60405161010f9190610933565b60405180910390f35b610132600480360381019061012d919061094c565b61027e565b60405161013f91906107bd565b60405180910390f35b610150610607565b60405161015d91906107bd565b60405180910390f35b610180600480360381019061017b919061077a565b61060d565b60405161018d91906107bd565b60405180910390f35b6101b060048036038101906101ab91906109c6565b610627565b005b6101ba6106f9565b6040516101c79190610a11565b60405180910390f35b6101d861071e565b6040516101e59190610a2a565b60405180910390f35b6005602052805f5260405f205f915090505481565b6004602052805f5260405f205f91509050805f015490806001015f9054906101000a900473ffffffffffffffffffffffffffffffffffffffff16908060020154908060030154908060040154908060050154905086565b5f5f9054906101000a900473ffffffffffffffffffffffffffffffffffffffff1681565b5f5f5f9054906101000a900473ffffffffffffffffffffffffffffffffffffffff1673ffffffffffffffffffffffffffffffffffffffff1663ee95feaf336040518263ffffffff1660e01b81526004016102d89190610a2a565b602060405180830381865afa1580156102f3573d5f5f3e3d5ffd5b505050506040513d601f19601f820116820180604052508101906103179190610a78565b610356576040517f08c379a000000000000000000000000000000000000000000000000000000000815260040161034d90610afd565b60405180910390fd5b5f60055f8681526020019081526020015f2054146103a9576040517f08c379a00000000000000000000000000000000000000000000000000000000081526004016103a090610b65565b60405180910390fd5b60025f8154809291906103bb90610bb0565b91905055506040518060c0016040528060025481526020013373ffffffffffffffffffffffffffffffffffffffff1681526020018581526020018481526020018381526020014281525060045f60025481526020019081526020015f205f820151815f01556020820151816001015f6101000a81548173ffffffffffffffffffffffffffffffffffffffff021916908373ffffffffffffffffffffffffffffffffffffffff16021790555060408201518160020155606082015181600301556080820151816004015560a0820151816005015590505060025460055f8681526020019081526020015f20819055505f6103e883856104b99190610bf7565b6104c39190610c65565b90503373ffffffffffffffffffffffffffffffffffffffff166002547f30fc35f6e1df619e0a4e711cb76bda66214119fd22daf70a29553fdcfca226f8878787866040516105149493929190610c95565b60405180910390a35f73ffffffffffffffffffffffffffffffffffffffff1660015f9054906101000a900473ffffffffffffffffffffffffffffffffffffffff1673ffffffffffffffffffffffffffffffffffffffff16146105fa5760015f9054906101000a900473ffffffffffffffffffffffffffffffffffffffff1673ffffffffffffffffffffffffffffffffffffffff166317ee08766002546040518263ffffffff1660e01b81526004016105cc91906107bd565b5f604051808303815f87803b1580156105e3575f5ffd5b505af11580156105f5573d5f5f3e3d5ffd5b505050505b6002549150509392505050565b60025481565b5f60055f8381526020019081526020015f20549050919050565b60035f9054906101000a900473ffffffffffffffffffffffffffffffffffffffff1673ffffffffffffffffffffffffffffffffffffffff163373ffffffffffffffffffffffffffffffffffffffff16146106b6576040517f08c379a00000000000000000000000000000000000000000000000000000000081526004016106ad90610d22565b60405180910390fd5b8060015f6101000a81548173ffffffffffffffffffffffffffffffffffffffff021916908373ffffffffffffffffffffffffffffffffffffffff16021790555050565b60015f9054906101000a900473ffffffffffffffffffffffffffffffffffffffff1681565b60035f9054906101000a900473ffffffffffffffffffffffffffffffffffffffff1681565b5f5ffd5b5f819050919050565b61075981610747565b8114610763575f5ffd5b50565b5f8135905061077481610750565b92915050565b5f6020828403121561078f5761078e610743565b5b5f61079c84828501610766565b91505092915050565b5f819050919050565b6107b7816107a5565b82525050565b5f6020820190506107d05f8301846107ae565b92915050565b6107df816107a5565b81146107e9575f5ffd5b50565b5f813590506107fa816107d6565b92915050565b5f6020828403121561081557610814610743565b5b5f610822848285016107ec565b91505092915050565b5f73ffffffffffffffffffffffffffffffffffffffff82169050919050565b5f6108548261082b565b9050919050565b6108648161084a565b82525050565b61087381610747565b82525050565b5f60c08201905061088c5f8301896107ae565b610899602083018861085b565b6108a6604083018761086a565b6108b360608301866107ae565b6108c060808301856107ae565b6108cd60a08301846107ae565b979650505050505050565b5f819050919050565b5f6108fb6108f66108f18461082b565b6108d8565b61082b565b9050919050565b5f61090c826108e1565b9050919050565b5f61091d82610902565b9050919050565b61092d81610913565b82525050565b5f6020820190506109465f830184610924565b92915050565b5f5f5f6060848603121561096357610962610743565b5b5f61097086828701610766565b9350506020610981868287016107ec565b9250506040610992868287016107ec565b9150509250925092565b6109a58161084a565b81146109af575f5ffd5b50565b5f813590506109c08161099c565b92915050565b5f602082840312156109db576109da610743565b5b5f6109e8848285016109b2565b91505092915050565b5f6109fb82610902565b9050919050565b610a0b816109f1565b82525050565b5f602082019050610a245f830184610a02565b92915050565b5f602082019050610a3d5f83018461085b565b92915050565b5f8115159050919050565b610a5781610a43565b8114610a61575f5ffd5b50565b5f81519050610a7281610a4e565b92915050565b5f60208284031215610a8d57610a8c610743565b5b5f610a9a84828501610a64565b91505092915050565b5f82825260208201905092915050565b7f6e6f7420726567697374657265642073656c6c657200000000000000000000005f82015250565b5f610ae7601583610aa3565b9150610af282610ab3565b602082019050919050565b5f6020820190508181035f830152610b1481610adb565b9050919050565b7f616c72656164792073746f7265640000000000000000000000000000000000005f82015250565b5f610b4f600e83610aa3565b9150610b5a82610b1b565b602082019050919050565b5f6020820190508181035f830152610b7c81610b43565b9050919050565b7f4e487b71000000000000000000000000000000000000000000000000000000005f52601160045260245ffd5b5f610bba826107a5565b91507fffffffffffffffffffffffffffffffffffffffffffffffffffffffffffffffff8203610bec57610beb610b83565b5b600182019050919050565b5f610c01826107a5565b9150610c0c836107a5565b9250828202610c1a816107a5565b91508282048414831517610c3157610c30610b83565b5b5092915050565b7f4e487b71000000000000000000000000000000000000000000000000000000005f52601260045260245ffd5b5f610c6f826107a5565b9150610c7a836107a5565b925082610c8a57610c89610c38565b5b828204905092915050565b5f608082019050610ca85f83018761086a565b610cb560208301866107ae565b610cc260408301856107ae565b610ccf60608301846107ae565b95945050505050565b7f6f6e6c792061646d696e000000000000000000000000000000000000000000005f82015250565b5f610d0c600a83610aa3565b9150610d1782610cd8565b602082019050919050565b5f6020820190508181035f830152610d3981610d00565b905091905056fea26469706673582212202fc61cbcaa3117c25b6790d2547f4133c7a05305371642066d9932c6871a84f364736f6c634300081c0033",
  "linkReferences": {},
  "deployedLinkReferences": {},
  "immutableReferences": {},
  "inputSourceName": "project/contracts/InvoiceValidation.sol",
  "buildInfoId": "solc-0_8_28-8b135aa8ae89f51b1074f4c5a44f59b738e87cec"
}