{
  "_format": "hh3-artifact-1",
  "contractName": "Registry",
  "sourceName": "contracts/Registry.sol",
  "abi": [
    {
      "inputs": [
        {
          "internalType": "address",
          "name": "admin",
          "type": "address"
        }
      ],
      "stateMutability": "nonpayable",
      "type": "constructor"
    },
    {
      "inputs": [],
      "name": "AccessControlBadConfirmation",
      "type": "error"
    },
    {
      "inputs": [
        {
          "internalType": "address",
          "name": "account",
          "type": "address"
        },
        {
          "internalType": "bytes32",
          "name": "neededRole",
          "type": "bytes32"
        }
      ],
      "name": "AccessControlUnauthorizedAccount",
      "type": "error"
    },
    {
      "anonymous": false,
      "inputs": [
        {
          "indexed": true,
          "internalType": "address",
          "name": "bank",
          "type": "address"
        },
        {
          "indexed": false,
          "internalType": "string",
          "name": "meta",
          "type": "string"
        }
      ],
      "name": "BankAdded",
      "type": "event"
    },
    {
      "anonymous": false,
      "inputs": [
        {
          "indexed": true,
          "internalType": "address",
          "name": "bank",
          "type": "address"
        }
      ],
      "name": "BankRemoved",
      "type": "event"
    },
    {
      "anonymous": false,
      "inputs": [
        {
          "indexed": true,
          "internalType": "bytes32",
          "name": "role",
          "type": "bytes32"
        },
        {
          "indexed": true,
          "internalType": "bytes32",
          "name": "previousAdminRole",
          "type": "bytes32"
        },
        {
          "indexed": true,
          "internalType": "bytes32",
          "name": "newAdminRole",
          "type": "bytes32"
        }
      ],
      "name": "RoleAdminChanged",
      "type": "event"
    },
    {
      "anonymous": false,
      "inputs": [
        {
          "indexed": true,
          "internalType": "bytes32",
          "name": "role",
          "type": "bytes32"
        },
        {
          "indexed": true,
          "internalType": "address",
          "name": "account",
          "type": "address"
        },
        {
          "indexed": true,
          "internalType": "address",
          "name": "sender",
          "type": "address"
        }
      ],
      "name": "RoleGranted",
      "type": "event"
    },
    {
      "anonymous": false,
      "inputs": [
        {
          "indexed": true,
          "internalType": "bytes32",
          "name": "role",
          "type": "bytes32"
        },
        {
          "indexed": true,
          "internalType": "address",
          "name": "account",
          "type": "address"
        },
        {
          "indexed": true,
          "internalType": "address",
          "name": "sender",
          "type": "address"
        }
      ],
      "name": "RoleRevoked",
      "type": "event"
    },
    {
      "anonymous": false,
      "inputs": [
        {
          "indexed": true,
          "internalType": "address",
          "name": "seller",
          "type": "address"
        },
        {
          "indexed": false,
          "internalType": "string",
          "name": "meta",
          "type": "string"
        }
      ],
      "name": "SellerAdded",
      "type": "event"
    },
    {
      "anonymous": false,
      "inputs": [
        {
          "indexed": true,
          "internalType": "address",
          "name": "seller",
          "type": "address"
        }
      ],
      "name": "SellerRemoved",
      "type": "event"
    },
    {
      "inputs": [],
      "name": "BANK_ROLE",
      "outputs": [
        {
          "internalType": "bytes32",
          "name": "",
          "type": "bytes32"
        }
      ],
      "stateMutability": "view",
      "type": "function"
    },
    {
      "inputs": [],
      "name": "DEFAULT_ADMIN_ROLE",
      "outputs": [
        {
          "internalType": "bytes32",
          "name": "",
          "type": "bytes32"
        }
      ],
      "stateMutability": "view",
      "type": "function"
    },
    {
      "inputs": [],
      "name": "SELLER_ROLE",
      "outputs": [
        {
          "internalType": "bytes32",
          "name": "",
          "type": "bytes32"
        }
      ],
      "stateMutability": "view",
      "type": "function"
    },
    {
      "inputs": [],
      "name": "TAX_ADMIN",
      "outputs": [
        {
          "internalType": "bytes32",
          "name": "",
          "type": "bytes32"
        }
      ],
      "stateMutability": "view",
      "type": "function"
    },
    {
      "inputs": [
        {
          "internalType": "address",
          "name": "bank",
          "type": "address"
        },
        {
          "internalType": "string",
          "name": "meta",
          "type": "string"
        }
      ],
      "name": "addBank",
      "outputs": [],
      "stateMutability": "nonpayable",
      "type": "function"
    },
    {
      "inputs": [
        {
          "internalType": "address",
          "name": "seller",
          "type": "address"
        },
        {
          "internalType": "string",
          "name": "meta",
          "type": "string"
        }
      ],
      "name": "addSeller",
      "outputs": [],
      "stateMutability": "nonpayable",
      "type": "function"
    },
    {
      "inputs": [
        {
          "internalType": "address",
          "name": "",
          "type": "address"
        }
      ],
      "name": "banks",
      "outputs": [
        {
          "internalType": "address",
          "name": "addr",
          "type": "address"
        },
        {
          "internalType": "string",
          "name": "meta",
          "type": "string"
        },
        {
          "internalType": "bool",
          "name": "active",
          "type": "bool"
        }
      ],
      "stateMutability": "view",
      "type": "function"
    },
    {
      "inputs": [
        {
          "internalType": "bytes32",
          "name": "role",
          "type": "bytes32"
        }
      ],
      "name": "getRoleAdmin",
      "outputs": [
        {
          "internalType": "bytes32",
          "name": "",
          "type": "bytes32"
        }
      ],
      "stateMutability": "view",
      "type": "function"
    },
    {
      "inputs": [
        {
          "internalType": "bytes32",
          "name": "role",
          "type": "bytes32"
        },
        {
          "internalType": "address",
          "name": "account",
          "type": "address"
        }
      ],
      "name": "grantRole",
      "outputs": [],
      "stateMutability": "nonpayable",
      "type": "function"
    },
    {
      "inputs": [
        {
          "internalType": "bytes32",
          "name": "role",
          "type": "bytes32"
        },
        {
          "internalType": "address",
          "name": "account",
          "type": "address"
        }
      ],
      "name": "hasRole",
      "outputs": [
        {
          "internalType": "bool",
          "name": "",
          "type": "bool"
        }
      ],
      "stateMutability": "view",
      "type": "function"
    },
    {
      "inputs": [
        {
          "internalType": "address",
          "name": "a",
          "type": "address"
        }
      ],
      "name": "isBank",
      "outputs": [
        {
          "internalType": "bool",
          "name": "",
          "type": "bool"
        }
      ],
      "stateMutability": "view",
      "type": "function"
    },
    {
      "inputs": [
        {
          "internalType": "address",
          "name": "a",
          "type": "address"
        }
      ],
      "name": "isSeller",
      "outputs": [
        {
          "internalType": "bool",
          "name": "",
          "type": "bool"
        }
      ],
      "stateMutability": "view",
      "type": "function"
    },
    {
      "inputs": [
        {
          "internalType": "address",
          "name": "bank",
          "type": "address"
        }
      ],
      "name": "removeBank",
      "outputs": [],
      "stateMutability": "nonpayable",
      "type": "function"
    },
    {
      "inputs": [
        {
          "internalType": "address",
          "name": "seller",
          "type": "address"
        }
      ],
      "name": "removeSeller",
      "outputs": [],
      "stateMutability": "nonpayable",
      "type": "function"
    },
    {
      "inputs": [
        {
          "internalType": "bytes32",
          "name": "role",
          "type": "bytes32"
        },
        {
          "internalType": "address",
          "name": "callerConfirmation",
          "type": "address"
        }
      ],
      "name": "renounceRole",
      "outputs": [],
      "stateMutability": "nonpayable",
      "type": "function"
    },
    {
      "inputs": [
        {
          "internalType": "bytes32",
          "name": "role",
          "type": "bytes32"
        },
        {
          "internalType": "address",
          "name": "account",
          "type": "address"
        }
      ],
      "name": "revokeRole",
      "outputs": [],
      "stateMutability": "nonpayable",
      "type": "function"
    },
    {
      "inputs": [
        {
          "internalType": "address",
          "name": "",
          "type": "address"
        }
      ],
      "name": "sellers",
      "outputs": [
        {
          "internalType": "address",
          "name": "addr",
          "type": "address"
        },
        {
          "internalType": "string",
          "name": "meta",
          "type": "string"
        },
        {
          "internalType": "bool",
          "name": "active",
          "type": "bool"
        }
      ],
      "stateMutability": "view",
      "type": "function"
    },
    {
      "inputs": [
        {
          "internalType": "bytes4",
          "name": "interfaceId",
          "type": "bytes4"
        }
      ],
      "name": "supportsInterface",
      "outputs": [
        {
          "internalType": "bool",
          "name": "",
          "type": "bool"
        }
      ],
      "stateMutability": "view",
      "type": "function"
    }
  ],
  "bytecode": "0x608060405234801561000f575f5ffd5b50604051611a78380380611a7883398181016040528101906100319190610238565b6100435f5f1b8261007b60201b60201c565b506100747fb29e6890441bdc3c77f79416051674ac99f868a9e227a2e6407c88a3ed4661e68261007b60201b60201c565b5050610263565b5f61008c838361017060201b60201c565b6101665760015f5f8581526020019081526020015f205f015f8473ffffffffffffffffffffffffffffffffffffffff1673ffffffffffffffffffffffffffffffffffffffff1681526020019081526020015f205f6101000a81548160ff0219169083151502179055506101036101d360201b60201c565b73ffffffffffffffffffffffffffffffffffffffff168273ffffffffffffffffffffffffffffffffffffffff16847f2f8788117e7eff1d82e926ec794901d17c78024a50270940304540a733656f0d60405160405180910390a46001905061016a565b5f90505b92915050565b5f5f5f8481526020019081526020015f205f015f8373ffffffffffffffffffffffffffffffffffffffff1673ffffffffffffffffffffffffffffffffffffffff1681526020019081526020015f205f9054906101000a900460ff16905092915050565b5f33905090565b5f5ffd5b5f73ffffffffffffffffffffffffffffffffffffffff82169050919050565b5f610207826101de565b9050919050565b610217816101fd565b8114610221575f5ffd5b50565b5f815190506102328161020e565b92915050565b5f6020828403121561024d5761024c6101da565b5b5f61025a84828501610224565b91505092915050565b611808806102705f395ff3fe608060405234801561000f575f5ffd5b5060043610610114575f3560e01c80638c438908116100a0578063d547741f1161006f578063d547741f146102f0578063dbe4613d1461030c578063dd7c4a5b1461032a578063ec676a4914610348578063ee95feaf1461037857610114565b80638c4389081461026a57806391d14854146102865780639649650c146102b6578063a217fddf146102d257610114565b80632f2ff15d116100e75780632f2ff15d146101b257806336568abe146101ce5780636d47ab72146101ea5780637cb9cf541461021c57806380c3b8c21461023857610114565b806301ffc9a7146101185780630eb71432146101485780631b73e67e14610166578063248a9ca314610182575b5f5ffd5b610132600480360381019061012d919061112d565b6103a8565b60405161013f9190611172565b60405180910390f35b610150610421565b60405161015d91906111a3565b60405180910390f35b610180600480360381019061017b9190611277565b610445565b005b61019c600480360381019061019791906112fe565b610620565b6040516101a991906111a3565b60405180910390f35b6101cc60048036038101906101c79190611329565b61063c565b005b6101e860048036038101906101e39190611329565b61065e565b005b61020460048036038101906101ff9190611367565b6106d9565b60405161021393929190611411565b60405180910390f35b61023660048036038101906102319190611367565b6107b0565b005b610252600480360381019061024d9190611367565b6108a3565b60405161026193929190611411565b60405180910390f35b610284600480360381019061027f9190611277565b61097a565b005b6102a0600480360381019061029b9190611329565b610b55565b6040516102ad9190611172565b60405180910390f35b6102d060048036038101906102cb9190611367565b610bb8565b005b6102da610cab565b6040516102e791906111a3565b60405180910390f35b61030a60048036038101906103059190611329565b610cb1565b005b610314610cd3565b60405161032191906111a3565b60405180910390f35b610332610cf7565b60405161033f91906111a3565b60405180910390f35b610362600480360381019061035d9190611367565b610d1b565b60405161036f9190611172565b60405180910390f35b610392600480360381019061038d9190611367565b610da2565b60405161039f9190611172565b60405180910390f35b5f7f7965db0b000000000000000000000000000000000000000000000000000000007bffffffffffffffffffffffffffffffffffffffffffffffffffffffff1916827bffffffffffffffffffffffffffffffffffffffffffffffffffffffff1916148061041a575061041982610e29565b5b9050919050565b7f591fa5458fe051cc8c02c405479bd38e00713c98dbd3db209d982048f1e638fa81565b7fb29e6890441bdc3c77f79416051674ac99f868a9e227a2e6407c88a3ed4661e661046f81610e92565b60405180606001604052808573ffffffffffffffffffffffffffffffffffffffff16815260200184848080601f0160208091040260200160405190810160405280939291908181526020018383808284375f81840152601f19601f8201169050808301925050505050505081526020016001151581525060015f8673ffffffffffffffffffffffffffffffffffffffff1673ffffffffffffffffffffffffffffffffffffffff1681526020019081526020015f205f820151815f015f6101000a81548173ffffffffffffffffffffffffffffffffffffffff021916908373ffffffffffffffffffffffffffffffffffffffff160217905550602082015181600101908161057c9190611680565b506040820151816002015f6101000a81548160ff0219169083151502179055509050506105c97f43f25613eb2f15fb17222a5d424ca2655743e71265d98e4b93c05e5fb589ecde85610ea6565b508373ffffffffffffffffffffffffffffffffffffffff167f07d8f81ad5d5a9f198b9a7c14e0a4d20755ffced9d8d061b57b14438869716ad8484604051610612929190611789565b60405180910390a250505050565b5f5f5f8381526020019081526020015f20600101549050919050565b61064582610620565b61064e81610e92565b6106588383610ea6565b50505050565b610666610f8f565b73ffffffffffffffffffffffffffffffffffffffff168173ffffffffffffffffffffffffffffffffffffffff16146106ca576040517f6697b23200000000000000000000000000000000000000000000000000000000815260040160405180910390fd5b6106d48282610f96565b505050565b6001602052805f5260405f205f91509050805f015f9054906101000a900473ffffffffffffffffffffffffffffffffffffffff169080600101805461071d906114a7565b80601f0160208091040260200160405190810160405280929190818152602001828054610749906114a7565b80156107945780601f1061076b57610100808354040283529160200191610794565b820191905f5260205f20905b81548152906001019060200180831161077757829003601f168201915b505050505090806002015f9054906101000a900460ff16905083565b7fb29e6890441bdc3c77f79416051674ac99f868a9e227a2e6407c88a3ed4661e66107da81610e92565b5f60015f8473ffffffffffffffffffffffffffffffffffffffff1673ffffffffffffffffffffffffffffffffffffffff1681526020019081526020015f206002015f6101000a81548160ff02191690831515021790555061085b7f43f25613eb2f15fb17222a5d424ca2655743e71265d98e4b93c05e5fb589ecde83610f96565b508173ffffffffffffffffffffffffffffffffffffffff167fa6f3b3030df964d974376ba4db21cbe49207bd79998f0d619c1c3a422259707f60405160405180910390a25050565b6002602052805f5260405f205f91509050805f015f9054906101000a900473ffffffffffffffffffffffffffffffffffffffff16908060010180546108e7906114a7565b80601f0160208091040260200160405190810160405280929190818152602001828054610913906114a7565b801561095e5780601f106109355761010080835404028352916020019161095e565b820191905f5260205f20905b81548152906001019060200180831161094157829003601f168201915b505050505090806002015f9054906101000a900460ff16905083565b7fb29e6890441bdc3c77f79416051674ac99f868a9e227a2e6407c88a3ed4661e66109a481610e92565b60405180606001604052808573ffffffffffffffffffffffffffffffffffffffff16815260200184848080601f0160208091040260200160405190810160405280939291908181526020018383808284375f81840152601f19601f8201169050808301925050505050505081526020016001151581525060025f8673ffffffffffffffffffffffffffffffffffffffff1673ffffffffffffffffffffffffffffffffffffffff1681526020019081526020015f205f820151815f015f6101000a81548173ffffffffffffffffffffffffffffffffffffffff021916908373ffffffffffffffffffffffffffffffffffffffff1602179055506020820151816001019081610ab19190611680565b506040820151816002015f6101000a81548160ff021916908315150217905550905050610afe7f591fa5458fe051cc8c02c405479bd38e00713c98dbd3db209d982048f1e638fa85610ea6565b508373ffffffffffffffffffffffffffffffffffffffff167f377b431a5337f1aa11af1475ca0661341b36eb8cb8747ac8e85121824693ba948484604051610b47929190611789565b60405180910390a250505050565b5f5f5f8481526020019081526020015f205f015f8373ffffffffffffffffffffffffffffffffffffffff1673ffffffffffffffffffffffffffffffffffffffff1681526020019081526020015f205f9054906101000a900460ff16905092915050565b7fb29e6890441bdc3c77f79416051674ac99f868a9e227a2e6407c88a3ed4661e6610be281610e92565b5f60025f8473ffffffffffffffffffffffffffffffffffffffff1673ffffffffffffffffffffffffffffffffffffffff1681526020019081526020015f206002015f6101000a81548160ff021916908315150217905550610c637f591fa5458fe051cc8c02c405479bd38e00713c98dbd3db209d982048f1e638fa83610f96565b508173ffffffffffffffffffffffffffffffffffffffff167f6c6b75303e41e95dbe82479ed0a94ba1d8a0d5eea16a922bb68e5daeedb1886760405160405180910390a25050565b5f5f1b81565b610cba82610620565b610cc381610e92565b610ccd8383610f96565b50505050565b7f43f25613eb2f15fb17222a5d424ca2655743e71265d98e4b93c05e5fb589ecde81565b7fb29e6890441bdc3c77f79416051674ac99f868a9e227a2e6407c88a3ed4661e681565b5f610d467f591fa5458fe051cc8c02c405479bd38e00713c98dbd3db209d982048f1e638fa83610b55565b8015610d9b575060025f8373ffffffffffffffffffffffffffffffffffffffff1673ffffffffffffffffffffffffffffffffffffffff1681526020019081526020015f206002015f9054906101000a900460ff165b9050919050565b5f610dcd7f43f25613eb2f15fb17222a5d424ca2655743e71265d98e4b93c05e5fb589ecde83610b55565b8015610e22575060015f8373ffffffffffffffffffffffffffffffffffffffff1673ffffffffffffffffffffffffffffffffffffffff1681526020019081526020015f206002015f9054906101000a900460ff165b9050919050565b5f7f01ffc9a7000000000000000000000000000000000000000000000000000000007bffffffffffffffffffffffffffffffffffffffffffffffffffffffff1916827bffffffffffffffffffffffffffffffffffffffffffffffffffffffff1916149050919050565b610ea381610e9e610f8f565b61107f565b50565b5f610eb18383610b55565b610f855760015f5f8581526020019081526020015f205f015f8473ffffffffffffffffffffffffffffffffffffffff1673ffffffffffffffffffffffffffffffffffffffff1681526020019081526020015f205f6101000a81548160ff021916908315150217905550610f22610f8f565b73ffffffffffffffffffffffffffffffffffffffff168273ffffffffffffffffffffffffffffffffffffffff16847f2f8788117e7eff1d82e926ec794901d17c78024a50270940304540a733656f0d60405160405180910390a460019050610f89565b5f90505b92915050565b5f33905090565b5f610fa18383610b55565b15611075575f5f5f8581526020019081526020015f205f015f8473ffffffffffffffffffffffffffffffffffffffff1673ffffffffffffffffffffffffffffffffffffffff1681526020019081526020015f205f6101000a81548160ff021916908315150217905550611012610f8f565b73ffffffffffffffffffffffffffffffffffffffff168273ffffffffffffffffffffffffffffffffffffffff16847ff6391f5c32d9c69d2a47ea670b442974b53935d1edc7fd64eb21e047a839171b60405160405180910390a460019050611079565b5f90505b92915050565b6110898282610b55565b6110cc5780826040517fe2517d3f0000000000000000000000000000000000000000000000000000000081526004016110c39291906117ab565b60405180910390fd5b5050565b5f5ffd5b5f5ffd5b5f7fffffffff0000000000000000000000000000000000000000000000000000000082169050919050565b61110c816110d8565b8114611116575f5ffd5b50565b5f8135905061112781611103565b92915050565b5f60208284031215611142576111416110d0565b5b5f61114f84828501611119565b91505092915050565b5f8115159050919050565b61116c81611158565b82525050565b5f6020820190506111855f830184611163565b92915050565b5f819050919050565b61119d8161118b565b82525050565b5f6020820190506111b65f830184611194565b92915050565b5f73ffffffffffffffffffffffffffffffffffffffff82169050919050565b5f6111e5826111bc565b9050919050565b6111f5816111db565b81146111ff575f5ffd5b50565b5f81359050611210816111ec565b92915050565b5f5ffd5b5f5ffd5b5f5ffd5b5f5f83601f84011261123757611236611216565b5b8235905067ffffffffffffffff8111156112545761125361121a565b5b6020830191508360018202830111156112705761126f61121e565b5b9250929050565b5f5f5f6040848603121561128e5761128d6110d0565b5b5f61129b86828701611202565b935050602084013567ffffffffffffffff8111156112bc576112bb6110d4565b5b6112c886828701611222565b92509250509250925092565b6112dd8161118b565b81146112e7575f5ffd5b50565b5f813590506112f8816112d4565b92915050565b5f60208284031215611313576113126110d0565b5b5f611320848285016112ea565b91505092915050565b5f5f6040838503121561133f5761133e6110d0565b5b5f61134c858286016112ea565b925050602061135d85828601611202565b9150509250929050565b5f6020828403121561137c5761137b6110d0565b5b5f61138984828501611202565b91505092915050565b61139b816111db565b82525050565b5f81519050919050565b5f82825260208201905092915050565b8281835e5f83830152505050565b5f601f19601f8301169050919050565b5f6113e3826113a1565b6113ed81856113ab565b93506113fd8185602086016113bb565b611406816113c9565b840191505092915050565b5f6060820190506114245f830186611392565b818103602083015261143681856113d9565b90506114456040830184611163565b949350505050565b7f4e487b71000000000000000000000000000000000000000000000000000000005f52604160045260245ffd5b7f4e487b71000000000000000000000000000000000000000000000000000000005f52602260045260245ffd5b5f60028204905060018216806114be57607f821691505b6020821081036114d1576114d061147a565b5b50919050565b5f819050815f5260205f209050919050565b5f6020601f8301049050919050565b5f82821b905092915050565b5f600883026115337fffffffffffffffffffffffffffffffffffffffffffffffffffffffffffffffff826114f8565b61153d86836114f8565b95508019841693508086168417925050509392505050565b5f819050919050565b5f819050919050565b5f61158161157c61157784611555565b61155e565b611555565b9050919050565b5f819050919050565b61159a83611567565b6115ae6115a682611588565b848454611504565b825550505050565b5f5f905090565b6115c56115b6565b6115d0818484611591565b505050565b5b818110156115f3576115e85f826115bd565b6001810190506115d6565b5050565b601f82111561163857611609816114d7565b611612846114e9565b81016020851015611621578190505b61163561162d856114e9565b8301826115d5565b50505b505050565b5f82821c905092915050565b5f6116585f198460080261163d565b1980831691505092915050565b5f6116708383611649565b9150826002028217905092915050565b611689826113a1565b67ffffffffffffffff8111156116a2576116a161144d565b5b6116ac82546114a7565b6116b78282856115f7565b5f60209050601f8311600181146116e8575f84156116d6578287015190505b6116e08582611665565b865550611747565b601f1984166116f6866114d7565b5f5b8281101561171d578489015182556001820191506020850194506020810190506116f8565b8683101561173a5784890151611736601f891682611649565b8355505b6001600288020188555050505b505050505050565b828183375f83830152505050565b5f61176883856113ab565b935061177583858461174f565b61177e836113c9565b840190509392505050565b5f6020820190508181035f8301526117a281848661175d565b90509392505050565b5f6040820190506117be5f830185611392565b6117cb6020830184611194565b939250505056fea2646970667358221220af78d07e71eaf408b8013d62288e1d3122f6d4565624db8525d17dd5d0cfe3b664736f6c634300081c0033",
  "linkReferences": {},
  "deployedLinkReferences": {},
  "immutableReferences": {},
  "inputSourceName": "project/contracts/Registry.sol",
  "buildInfoId": "solc-0_8_28-e9195c89decdb6998688b85e30b0c16feba00c2d"
}