{
  "_format": "hh3-artifact-1",
  "contractName": "PaymentRegistry",
  "sourceName": "contracts/PaymentRegistry.sol",
  "abi": [
    {
      "inputs": [
        {
          "internalType": "address",
          "name": "registryAddr",
          "type": "address"
        },
        {
          "internalType": "address",
          "name": "invoiceValidationAddr",
          "type": "address"
        }
      ],
      "stateMutability": "nonpayable",
      "type": "constructor"
    },
    {
      "anonymous": false,
      "inputs": [
        {
          "indexed": true,
          "internalType": "uint256",
          "name": "id",
          "type": "uint256"
        },
        {
          "indexed": true,
          "internalType": "address",
          "name": "bank",
          "type": "address"
        },
        {
          "indexed": false,
          "internalType": "uint256",
          "name": "invoiceId",
          "type": "uint256"
        },
        {
          "indexed": false,
          "internalType": "bytes32",
          "name": "paymentHash",
          "type": "bytes32"
        },
        {
          "indexed": false,
          "internalType": "uint256",
          "name": "amountPaid",
          "type": "uint256"
        }
      ],
      "name": "PaymentStored",
      "type": "event"
    },
    {
      "inputs": [],
      "name": "invoiceValidation",
      "outputs": [
        {
          "internalType": "contract IInvoiceValidation",
          "name": "",
          "type": "address"
        }
      ],
      "stateMutability": "view",
      "type": "function"
    },
    {
      "inputs": [],
      "name": "paymentCounter",
      "outputs": [
        {
          "internalType": "uint256",
          "name": "",
          "type": "uint256"
        }
      ],
      "stateMutability": "view",
      "type": "function"
    },
    {
      "inputs": [
        {
          "internalType": "bytes32",
          "name": "",
          "type": "bytes32"
        }
      ],
      "name": "paymentHashToId",
      "outputs": [
        {
          "internalType": "uint256",
          "name": "",
          "type": "uint256"
        }
      ],
      "stateMutability": "view",
      "type": "function"
    },
    {
      "inputs": [
        {
          "internalType": "uint256",
          "name": "",
          "type": "uint256"
        }
      ],
      "name": "payments",
      "outputs": [
        {
          "internalType": "uint256",
          "name": "id",
          "type": "uint256"
        },
        {
          "internalType": "address",
          "name": "bank",
          "type": "address"
        },
        {
          "internalType": "uint256",
          "name": "invoiceId",
          "type": "uint256"
        },
        {
          "internalType": "bytes32",
          "name": "paymentHash",
          "type": "bytes32"
        },
        {
          "internalType": "uint256",
          "name": "amountPaid",
          "type": "uint256"
        },
        {
          "internalType": "uint256",
          "name": "timestamp",
          "type": "uint256"
        }
      ],
      "stateMutability": "view",
      "type": "function"
    },
    {
      "inputs": [],
      "name": "registry",
      "outputs": [
        {
          "internalType": "contract IRegistry",
          "name": "",
          "type": "address"
        }
      ],
      "stateMutability": "view",
      "type": "function"
    },
    {
      "inputs": [
        {
          "internalType": "bytes32",
          "name": "paymentHash",
          "type": "bytes32"
        },
        {
          "internalType": "bytes32",
          "name": "invoiceHash",
          "type": "bytes32"
        },
        {
          "internalType": "uint256",
          "name": "amountPaid",
          "type": "uint256"
        }
      ],
      "name": "storePayment",
      "outputs": [
        {
          "internalType": "uint256",
          "name": "",
          "type": "uint256"
        }
      ],
      "stateMutability": "nonpayable",
      "type": "function"
    }
  ],
  "bytecode": "0x608060405234801561000f575f5ffd5b50604051610c63380380610c6383398181016040528101906100319190610115565b815f5f6101000a81548173ffffffffffffffffffffffffffffffffffffffff021916908373ffffffffffffffffffffffffffffffffffffffff1602179055508060015f6101000a81548173ffffffffffffffffffffffffffffffffffffffff021916908373ffffffffffffffffffffffffffffffffffffffff1602179055505050610153565b5f5ffd5b5f73ffffffffffffffffffffffffffffffffffffffff82169050919050565b5f6100e4826100bb565b9050919050565b6100f4816100da565b81146100fe575f5ffd5b50565b5f8151905061010f816100eb565b92915050565b5f5f6040838503121561012b5761012a6100b7565b5b5f61013885828601610101565b925050602061014985828601610101565b9150509250929050565b610b03806101605f395ff3fe608060405234801561000f575f5ffd5b5060043610610060575f3560e01c80632cc3073e14610064578063380795541461009457806376840b60146100b25780637b103999146100d057806387d81789146100ee578063e377950e14610123575b5f5ffd5b61007e600480360381019061007991906105b0565b610153565b60405161008b91906105f3565b60405180910390f35b61009c610168565b6040516100a99190610686565b60405180910390f35b6100ba61018d565b6040516100c791906105f3565b60405180910390f35b6100d8610193565b6040516100e591906106bf565b60405180910390f35b61010860048036038101906101039190610702565b6101b7565b60405161011a9695949392919061075c565b60405180910390f35b61013d600480360381019061013891906107bb565b61020e565b60405161014a91906105f3565b60405180910390f35b6004602052805f5260405f205f915090505481565b60015f9054906101000a900473ffffffffffffffffffffffffffffffffffffffff1681565b60025481565b5f5f9054906101000a900473ffffffffffffffffffffffffffffffffffffffff1681565b6003602052805f5260405f205f91509050805f015490806001015f9054906101000a900473ffffffffffffffffffffffffffffffffffffffff16908060020154908060030154908060040154908060050154905086565b5f5f5f9054906101000a900473ffffffffffffffffffffffffffffffffffffffff1673ffffffffffffffffffffffffffffffffffffffff1663ec676a49336040518263ffffffff1660e01b8152600401610268919061080b565b602060405180830381865afa158015610283573d5f5f3e3d5ffd5b505050506040513d601f19601f820116820180604052508101906102a79190610859565b6102e6576040517f08c379a00000000000000000000000000000000000000000000000000000000081526004016102dd906108de565b60405180910390fd5b5f60045f8681526020019081526020015f205414610339576040517f08c379a000000000000000000000000000000000000000000000000000000000815260040161033090610946565b60405180910390fd5b5f60015f9054906101000a900473ffffffffffffffffffffffffffffffffffffffff1673ffffffffffffffffffffffffffffffffffffffff1663d24f461e856040518263ffffffff1660e01b81526004016103949190610964565b602060405180830381865afa1580156103af573d5f5f3e3d5ffd5b505050506040513d601f19601f820116820180604052508101906103d39190610991565b90505f8103610417576040517f08c379a000000000000000000000000000000000000000000000000000000000815260040161040e90610a06565b60405180910390fd5b60025f81548092919061042990610a51565b91905055506040518060c0016040528060025481526020013373ffffffffffffffffffffffffffffffffffffffff1681526020018281526020018681526020018481526020014281525060035f60025481526020019081526020015f205f820151815f01556020820151816001015f6101000a81548173ffffffffffffffffffffffffffffffffffffffff021916908373ffffffffffffffffffffffffffffffffffffffff16021790555060408201518160020155606082015181600301556080820151816004015560a0820151816005015590505060025460045f8781526020019081526020015f20819055503373ffffffffffffffffffffffffffffffffffffffff166002547fef834e7e061a8029a46763be983cc4e4f2a0bc2ad6a33706f3f99703ca1619ab83888760405161056493929190610a98565b60405180910390a36002549150509392505050565b5f5ffd5b5f819050919050565b61058f8161057d565b8114610599575f5ffd5b50565b5f813590506105aa81610586565b92915050565b5f602082840312156105c5576105c4610579565b5b5f6105d28482850161059c565b91505092915050565b5f819050919050565b6105ed816105db565b82525050565b5f6020820190506106065f8301846105e4565b92915050565b5f73ffffffffffffffffffffffffffffffffffffffff82169050919050565b5f819050919050565b5f61064e6106496106448461060c565b61062b565b61060c565b9050919050565b5f61065f82610634565b9050919050565b5f61067082610655565b9050919050565b61068081610666565b82525050565b5f6020820190506106995f830184610677565b92915050565b5f6106a982610655565b9050919050565b6106b98161069f565b82525050565b5f6020820190506106d25f8301846106b0565b92915050565b6106e1816105db565b81146106eb575f5ffd5b50565b5f813590506106fc816106d8565b92915050565b5f6020828403121561071757610716610579565b5b5f610724848285016106ee565b91505092915050565b5f6107378261060c565b9050919050565b6107478161072d565b82525050565b6107568161057d565b82525050565b5f60c08201905061076f5f8301896105e4565b61077c602083018861073e565b61078960408301876105e4565b610796606083018661074d565b6107a360808301856105e4565b6107b060a08301846105e4565b979650505050505050565b5f5f5f606084860312156107d2576107d1610579565b5b5f6107df8682870161059c565b93505060206107f08682870161059c565b9250506040610801868287016106ee565b9150509250925092565b5f60208201905061081e5f83018461073e565b92915050565b5f8115159050919050565b61083881610824565b8114610842575f5ffd5b50565b5f815190506108538161082f565b92915050565b5f6020828403121561086e5761086d610579565b5b5f61087b84828501610845565b91505092915050565b5f82825260208201905092915050565b7f6e6f7420726567697374657265642062616e6b000000000000000000000000005f82015250565b5f6108c8601383610884565b91506108d382610894565b602082019050919050565b5f6020820190508181035f8301526108f5816108bc565b9050919050565b7f7061796d656e74206578697374730000000000000000000000000000000000005f82015250565b5f610930600e83610884565b915061093b826108fc565b602082019050919050565b5f6020820190508181035f83015261095d81610924565b9050919050565b5f6020820190506109775f83018461074d565b92915050565b5f8151905061098b816106d8565b92915050565b5f602082840312156109a6576109a5610579565b5b5f6109b38482850161097d565b91505092915050565b7f696e766f69636520756e6b6e6f776e00000000000000000000000000000000005f82015250565b5f6109f0600f83610884565b91506109fb826109bc565b602082019050919050565b5f6020820190508181035f830152610a1d816109e4565b9050919050565b7f4e487b71000000000000000000000000000000000000000000000000000000005f52601160045260245ffd5b5f610a5b826105db565b91507fffffffffffffffffffffffffffffffffffffffffffffffffffffffffffffffff8203610a8d57610a8c610a24565b5b600182019050919050565b5f606082019050610aab5f8301866105e4565b610ab8602083018561074d565b610ac560408301846105e4565b94935050505056fea2646970667358221220b6c6665bf8a63722fcf8938a1c697c7ac537fca03e8568940e1f628c87a6a39964736f6c634300081c0033",
  "linkReferences": {},
  "deployedLinkReferences": {},
  "immutableReferences": {},
  "inputSourceName": "project/contracts/PaymentRegistry.sol",
  "buildInfoId": "solc-0_8_28-8a0a619fd4b12561d68d47884f1fce8e454b920d"
}